{
  "contractName": "Transplant",
  "abi": [
    {
      "inputs": [
        {
          "internalType": "address",
          "name": "_receient",
          "type": "address"
        },
        {
          "internalType": "address",
          "name": "_donor",
          "type": "address"
        },
        {
          "internalType": "address",
          "name": "_approval_authority1",
          "type": "address"
        },
        {
          "internalType": "address",
          "name": "_approval_authority2",
          "type": "address"
        },
        {
          "internalType": "uint256",
          "name": "_organ",
          "type": "uint256"
        }
      ],
      "payable": false,
      "stateMutability": "nonpayable",
      "type": "constructor"
    },
    {
      "constant": true,
      "inputs": [
        {
          "internalType": "uint256",
          "name": "",
          "type": "uint256"
        },
        {
          "internalType": "address",
          "name": "",
          "type": "address"
        }
      ],
      "name": "approval",
      "outputs": [
        {
          "internalType": "bool",
          "name": "",
          "type": "bool"
        }
      ],
      "payable": false,
      "stateMutability": "view",
      "type": "function"
    },
    {
      "constant": true,
      "inputs": [],
      "name": "approval_authority1",
      "outputs": [
        {
          "internalType": "address",
          "name": "",
          "type": "address"
        }
      ],
      "payable": false,
      "stateMutability": "view",
      "type": "function"
    },
    {
      "constant": true,
      "inputs": [],
      "name": "approval_authority2",
      "outputs": [
        {
          "internalType": "address",
          "name": "",
          "type": "address"
        }
      ],
      "payable": false,
      "stateMutability": "view",
      "type": "function"
    },
    {
      "constant": true,
      "inputs": [],
      "name": "doctor",
      "outputs": [
        {
          "internalType": "address",
          "name": "",
          "type": "address"
        }
      ],
      "payable": false,
      "stateMutability": "view",
      "type": "function"
    },
    {
      "constant": true,
      "inputs": [],
      "name": "donor",
      "outputs": [
        {
          "internalType": "address",
          "name": "",
          "type": "address"
        }
      ],
      "payable": false,
      "stateMutability": "view",
      "type": "function"
    },
    {
      "constant": true,
      "inputs": [],
      "name": "recepient",
      "outputs": [
        {
          "internalType": "address",
          "name": "",
          "type": "address"
        }
      ],
      "payable": false,
      "stateMutability": "view",
      "type": "function"
    },
    {
      "constant": true,
      "inputs": [],
      "name": "stageNo",
      "outputs": [
        {
          "internalType": "uint256",
          "name": "",
          "type": "uint256"
        }
      ],
      "payable": false,
      "stateMutability": "view",
      "type": "function"
    },
    {
      "constant": true,
      "inputs": [
        {
          "internalType": "uint256",
          "name": "",
          "type": "uint256"
        }
      ],
      "name": "stages",
      "outputs": [
        {
          "internalType": "bool",
          "name": "started",
          "type": "bool"
        },
        {
          "internalType": "bool",
          "name": "completed",
          "type": "bool"
        },
        {
          "internalType": "uint256",
          "name": "voteCount",
          "type": "uint256"
        }
      ],
      "payable": false,
      "stateMutability": "view",
      "type": "function"
    },
    {
      "constant": false,
      "inputs": [],
      "name": "startNextStage",
      "outputs": [],
      "payable": false,
      "stateMutability": "nonpayable",
      "type": "function"
    },
    {
      "constant": false,
      "inputs": [],
      "name": "currentStageApproval",
      "outputs": [],
      "payable": false,
      "stateMutability": "nonpayable",
      "type": "function"
    },
    {
      "constant": false,
      "inputs": [],
      "name": "completeStage",
      "outputs": [],
      "payable": false,
      "stateMutability": "nonpayable",
      "type": "function"
    },
    {
      "constant": true,
      "inputs": [
        {
          "internalType": "uint256",
          "name": "_stage",
          "type": "uint256"
        },
        {
          "internalType": "address",
          "name": "_addr",
          "type": "address"
        }
      ],
      "name": "getmapppingvalue",
      "outputs": [
        {
          "internalType": "bool",
          "name": "",
          "type": "bool"
        }
      ],
      "payable": false,
      "stateMutability": "view",
      "type": "function"
    }
  ],
  "bytecode": "0x608060405234801561001057600080fd5b506040516110e13803806110e1833981810160405260a081101561003357600080fd5b81019080805190602001909291908051906020019092919080519060200190929190805190602001909291908051906020019092919050505084600460006101000a81548173ffffffffffffffffffffffffffffffffffffffff021916908373ffffffffffffffffffffffffffffffffffffffff16021790555083600560006101000a81548173ffffffffffffffffffffffffffffffffffffffff021916908373ffffffffffffffffffffffffffffffffffffffff16021790555032600360006101000a81548173ffffffffffffffffffffffffffffffffffffffff021916908373ffffffffffffffffffffffffffffffffffffffff16021790555082600660006101000a81548173ffffffffffffffffffffffffffffffffffffffff021916908373ffffffffffffffffffffffffffffffffffffffff16021790555081600760006101000a81548173ffffffffffffffffffffffffffffffffffffffff021916908373ffffffffffffffffffffffffffffffffffffffff160217905550806000819055506101c0610272565b6040518060600160405280600115158152602001600015158152602001600081525090506009819080600181540180825580915050906001820390600052602060002090600202016000909192909190915060008201518160000160006101000a81548160ff02191690831515021790555060208201518160000160016101000a81548160ff021916908315150217905550604082015181600101555050506000600881905550505050505050610297565b6040518060600160405280600015158152602001600015158152602001600081525090565b610e3b806102a66000396000f3fe608060405234801561001057600080fd5b50600436106100b45760003560e01c8063b848de3511610071578063b848de3514610203578063bf80d70514610269578063e2a0e125146102cf578063f793914c146102ed578063fa27d48414610337578063ff69909e14610341576100b4565b806325223bd4146100b95780635ee6509a14610103578063653321361461010d5780636618417e146101575780637ea7118c14610161578063845ddcb2146101ab575b600080fd5b6100c161038b565b604051808273ffffffffffffffffffffffffffffffffffffffff1673ffffffffffffffffffffffffffffffffffffffff16815260200191505060405180910390f35b61010b6103b1565b005b6101156105fe565b604051808273ffffffffffffffffffffffffffffffffffffffff1673ffffffffffffffffffffffffffffffffffffffff16815260200191505060405180910390f35b61015f610624565b005b6101696108e5565b604051808273ffffffffffffffffffffffffffffffffffffffff1673ffffffffffffffffffffffffffffffffffffffff16815260200191505060405180910390f35b6101d7600480360360208110156101c157600080fd5b810190808035906020019092919050505061090b565b604051808415151515815260200183151515158152602001828152602001935050505060405180910390f35b61024f6004803603604081101561021957600080fd5b8101908080359060200190929190803573ffffffffffffffffffffffffffffffffffffffff16906020019092919050505061095c565b604051808215151515815260200191505060405180910390f35b6102b56004803603604081101561027f57600080fd5b8101908080359060200190929190803573ffffffffffffffffffffffffffffffffffffffff16906020019092919050505061098b565b604051808215151515815260200191505060405180910390f35b6102d76109f3565b6040518082815260200191505060405180910390f35b6102f56109f9565b604051808273ffffffffffffffffffffffffffffffffffffffff1673ffffffffffffffffffffffffffffffffffffffff16815260200191505060405180910390f35b61033f610a1f565b005b610349610dbb565b604051808273ffffffffffffffffffffffffffffffffffffffff1673ffffffffffffffffffffffffffffffffffffffff16815260200191505060405180910390f35b600560009054906101000a900473ffffffffffffffffffffffffffffffffffffffff1681565b600360009054906101000a900473ffffffffffffffffffffffffffffffffffffffff1673ffffffffffffffffffffffffffffffffffffffff163273ffffffffffffffffffffffffffffffffffffffff161461040b57600080fd5b600560096008548154811061041c57fe5b906000526020600020906002020160010154146104a1576040517f08c379a00000000000000000000000000000000000000000000000000000000081526004018080602001828103825260108152602001807f4e6f7420456e6f75676820566f7465730000000000000000000000000000000081525060200191505060405180910390fd5b600115156009600854815481106104b457fe5b906000526020600020906002020160000160019054906101000a900460ff16151514610548576040517f08c379a00000000000000000000000000000000000000000000000000000000081526004018080602001828103825260178152602001807f5374616765204e6f7420636f6d706c657465642079657400000000000000000081525060200191505060405180910390fd5b60016008540160088190555061055c610de1565b6040518060600160405280600115158152602001600015158152602001600081525090506009819080600181540180825580915050906001820390600052602060002090600202016000909192909190915060008201518160000160006101000a81548160ff02191690831515021790555060208201518160000160016101000a81548160ff0219169083151502179055506040820151816001015550505050565b600660009054906101000a900473ffffffffffffffffffffffffffffffffffffffff1681565b600560009054906101000a900473ffffffffffffffffffffffffffffffffffffffff1673ffffffffffffffffffffffffffffffffffffffff163273ffffffffffffffffffffffffffffffffffffffff1614806106cd5750600460009054906101000a900473ffffffffffffffffffffffffffffffffffffffff1673ffffffffffffffffffffffffffffffffffffffff163273ffffffffffffffffffffffffffffffffffffffff16145b806107255750600360009054906101000a900473ffffffffffffffffffffffffffffffffffffffff1673ffffffffffffffffffffffffffffffffffffffff163273ffffffffffffffffffffffffffffffffffffffff16145b8061077d5750600660009054906101000a900473ffffffffffffffffffffffffffffffffffffffff1673ffffffffffffffffffffffffffffffffffffffff163273ffffffffffffffffffffffffffffffffffffffff16145b806107d55750600760009054906101000a900473ffffffffffffffffffffffffffffffffffffffff1673ffffffffffffffffffffffffffffffffffffffff163273ffffffffffffffffffffffffffffffffffffffff16145b6107de57600080fd5b600b6000600854815260200190815260200160002060003273ffffffffffffffffffffffffffffffffffffffff1673ffffffffffffffffffffffffffffffffffffffff16815260200190815260200160002060009054906101000a900460ff161561084857600080fd5b6001600b6000600854815260200190815260200160002060003273ffffffffffffffffffffffffffffffffffffffff1673ffffffffffffffffffffffffffffffffffffffff16815260200190815260200160002060006101000a81548160ff0219169083151502179055506009600854815481106108c257fe5b906000526020600020906002020160010160008154809291906001019190505550565b600360009054906101000a900473ffffffffffffffffffffffffffffffffffffffff1681565b6009818154811061091857fe5b90600052602060002090600202016000915090508060000160009054906101000a900460ff16908060000160019054906101000a900460ff16908060010154905083565b600b6020528160005260406000206020528060005260406000206000915091509054906101000a900460ff1681565b6000600b600084815260200190815260200160002060008373ffffffffffffffffffffffffffffffffffffffff1673ffffffffffffffffffffffffffffffffffffffff16815260200190815260200160002060009054906101000a900460ff16905092915050565b60085481565b600760009054906101000a900473ffffffffffffffffffffffffffffffffffffffff1681565b600360009054906101000a900473ffffffffffffffffffffffffffffffffffffffff1673ffffffffffffffffffffffffffffffffffffffff163273ffffffffffffffffffffffffffffffffffffffff1614610a7957600080fd5b6005600960085481548110610a8a57fe5b90600052602060002090600202016001015414610aa657600080fd5b60011515600b600060085481526020019081526020016000206000600560009054906101000a900473ffffffffffffffffffffffffffffffffffffffff1673ffffffffffffffffffffffffffffffffffffffff1673ffffffffffffffffffffffffffffffffffffffff16815260200190815260200160002060009054906101000a900460ff16151514610b3857600080fd5b60011515600b600060085481526020019081526020016000206000600460009054906101000a900473ffffffffffffffffffffffffffffffffffffffff1673ffffffffffffffffffffffffffffffffffffffff1673ffffffffffffffffffffffffffffffffffffffff16815260200190815260200160002060009054906101000a900460ff16151514610bca57600080fd5b60011515600b600060085481526020019081526020016000206000600360009054906101000a900473ffffffffffffffffffffffffffffffffffffffff1673ffffffffffffffffffffffffffffffffffffffff1673ffffffffffffffffffffffffffffffffffffffff16815260200190815260200160002060009054906101000a900460ff16151514610c5c57600080fd5b60011515600b600060085481526020019081526020016000206000600760009054906101000a900473ffffffffffffffffffffffffffffffffffffffff1673ffffffffffffffffffffffffffffffffffffffff1673ffffffffffffffffffffffffffffffffffffffff16815260200190815260200160002060009054906101000a900460ff16151514610cee57600080fd5b60011515600b600060085481526020019081526020016000206000600660009054906101000a900473ffffffffffffffffffffffffffffffffffffffff1673ffffffffffffffffffffffffffffffffffffffff1673ffffffffffffffffffffffffffffffffffffffff16815260200190815260200160002060009054906101000a900460ff16151514610d8057600080fd5b6001600960085481548110610d9157fe5b906000526020600020906002020160000160016101000a81548160ff021916908315150217905550565b600460009054906101000a900473ffffffffffffffffffffffffffffffffffffffff1681565b604051806060016040528060001515815260200160001515815260200160008152509056fea265627a7a7231582005e8756f6368a33710b1a28a553b9d2db9399d3653a4ddab0cceeb1ac7fb21c664736f6c63430005100032",
  "source": "// SPDX-License-Identifier: MIT\npragma solidity >=0.4.25 <0.7.0;\n\n//complete the transplant function is left\n\ncontract Transplant {\n\n\t\tstruct doc {\n\t\t    address uploader ;\n\t\t    string hexCode ;\n\t\t}\n\t\t\n\t\tstruct Stage {\n\t\t    bool started ;\n\t\t    bool completed ;\n\t\t    uint voteCount ;\n\t\t}\n\n\n    \tuint organ ;\n\t\tuint cost ;\n\t\tstring status ;\n\n\t\taddress public doctor ;\n\t\taddress public recepient ;\n\t\taddress public donor ;\n\t\taddress public approval_authority1;\n\t\taddress public approval_authority2;\n\n\t\tuint256 public stageNo ;\n\t\tStage[] public stages ;\n\t\t\n\t\t//mapping user address => stage no => bool\n\t\tmapping (address => bool) entity ;\n\t\tmapping ( uint256 => mapping ( address => bool )) public approval ;\n\t\tmapping (uint256 => doc[]) docs ;\n\n\t\tmodifier onlyDoctor() {\n\t\t    require(tx.origin == doctor);\n\t\t    _;\n\t\t}\n\t\tmodifier belongs () {\n\t\t    require (tx.origin == donor || tx.origin == recepient || tx.origin == doctor || tx.origin == approval_authority1 || tx.origin == approval_authority2 );\n\t\t    _;\n\t\t}\n\t\t\n\n\t\tconstructor ( address _receient , address _donor , address _approval_authority1 , address _approval_authority2 , uint _organ ) public  {\n\t\t    recepient =_receient;\n\t\t    donor =_donor;\n\t\t    doctor= tx.origin ;\n\t\t    approval_authority1 = _approval_authority1;\n\t\t    approval_authority2 = _approval_authority2;\n\t\t    organ =_organ;\n\t\t    Stage memory newStage = Stage({\n\t\t        completed:false,\n\t\t        voteCount:0,\n\t\t        started:true \n\t\t    });\n\t\t    stages.push(newStage);\n\t\t    stageNo=0;\n\t\t    \n\t\t    \n\t\t}\n\t\t\n\t\tfunction startNextStage () public onlyDoctor {\n\t\t\trequire(stages[stageNo].voteCount == 5 , \"Not Enough Votes\");\n\t\t\trequire(stages[stageNo].completed == true , \"Stage Not completed yet\");\n\t\t    stageNo = stageNo+1;\n\t\t    Stage memory newStage = Stage({\n\t\t        completed:false,\n\t\t        voteCount:0,\n\t\t        started:true \n\t\t    });\n\t\t    stages.push(newStage);\n\t\t}\n\t\tfunction currentStageApproval () public belongs  { //upload ipfs docs here pending functionality  \n\t\t//check the stage has been started and the user has not already applied\n\t\t\trequire(!approval[stageNo][tx.origin]);\n\t\t\tapproval[stageNo][tx.origin]= true ;\n\t\t\tstages[stageNo].voteCount ++ ;\n\t\t}\n\t\tfunction completeStage () public onlyDoctor {\n\t\t\trequire(stages[stageNo].voteCount == 5);\n\t\t\trequire(approval[stageNo][donor] == true );\n\t\t\trequire(approval[stageNo][recepient] == true );\n\t\t\trequire(approval[stageNo][doctor] == true );\n\t\t\trequire(approval[stageNo][approval_authority2] == true );\n\t\t\trequire(approval[stageNo][approval_authority1] == true );\n\t\t\tstages[stageNo].completed =true ;\n\t\t}\n\t\tfunction getmapppingvalue (uint256 _stage , address _addr ) public view returns (bool) {\n\t\t    return (approval[_stage][_addr]);\n\t\t}\n\t\t\n}",
  "sourcePath": "/home/specter25/cs2019-2023/blockchain/organ-donation-blockchain/src/contracts/Transplant.sol",
  "compiler": {
    "name": "solc",
    "version": "0.5.16+commit.9c3226ce.Emscripten.clang"
  },
  "schemaVersion": "3.2.3",
  "updatedAt": "2020-12-19T14:58:03.584Z",
  "devdoc": {
    "methods": {}
  },
  "userdoc": {
    "methods": {}
  }
}