{
  "contractName": "Transplant",
  "abi": [
    {
      "inputs": [
        {
          "internalType": "address",
          "name": "_receient",
          "type": "address"
        },
        {
          "internalType": "address",
          "name": "_donor",
          "type": "address"
        },
        {
          "internalType": "address",
          "name": "_approval_authority1",
          "type": "address"
        },
        {
          "internalType": "address",
          "name": "_approval_authority2",
          "type": "address"
        },
        {
          "internalType": "uint256",
          "name": "_organ",
          "type": "uint256"
        }
      ],
      "payable": false,
      "stateMutability": "nonpayable",
      "type": "constructor"
    },
    {
      "constant": true,
      "inputs": [],
      "name": "approval_authority1",
      "outputs": [
        {
          "internalType": "address",
          "name": "",
          "type": "address"
        }
      ],
      "payable": false,
      "stateMutability": "view",
      "type": "function"
    },
    {
      "constant": true,
      "inputs": [],
      "name": "approval_authority2",
      "outputs": [
        {
          "internalType": "address",
          "name": "",
          "type": "address"
        }
      ],
      "payable": false,
      "stateMutability": "view",
      "type": "function"
    },
    {
      "constant": true,
      "inputs": [],
      "name": "doctor",
      "outputs": [
        {
          "internalType": "address",
          "name": "",
          "type": "address"
        }
      ],
      "payable": false,
      "stateMutability": "view",
      "type": "function"
    },
    {
      "constant": true,
      "inputs": [],
      "name": "donor",
      "outputs": [
        {
          "internalType": "address",
          "name": "",
          "type": "address"
        }
      ],
      "payable": false,
      "stateMutability": "view",
      "type": "function"
    },
    {
      "constant": true,
      "inputs": [],
      "name": "recepient",
      "outputs": [
        {
          "internalType": "address",
          "name": "",
          "type": "address"
        }
      ],
      "payable": false,
      "stateMutability": "view",
      "type": "function"
    },
    {
      "constant": true,
      "inputs": [],
      "name": "stageNo",
      "outputs": [
        {
          "internalType": "uint256",
          "name": "",
          "type": "uint256"
        }
      ],
      "payable": false,
      "stateMutability": "view",
      "type": "function"
    },
    {
      "constant": true,
      "inputs": [
        {
          "internalType": "uint256",
          "name": "",
          "type": "uint256"
        }
      ],
      "name": "stages",
      "outputs": [
        {
          "internalType": "bool",
          "name": "started",
          "type": "bool"
        },
        {
          "internalType": "bool",
          "name": "completed",
          "type": "bool"
        },
        {
          "internalType": "uint256",
          "name": "voteCount",
          "type": "uint256"
        }
      ],
      "payable": false,
      "stateMutability": "view",
      "type": "function"
    },
    {
      "constant": false,
      "inputs": [],
      "name": "startNextStage",
      "outputs": [],
      "payable": false,
      "stateMutability": "nonpayable",
      "type": "function"
    },
    {
      "constant": false,
      "inputs": [],
      "name": "currentStageApproval",
      "outputs": [],
      "payable": false,
      "stateMutability": "nonpayable",
      "type": "function"
    },
    {
      "constant": false,
      "inputs": [],
      "name": "completeStage",
      "outputs": [],
      "payable": false,
      "stateMutability": "nonpayable",
      "type": "function"
    }
  ],
  "bytecode": "0x608060405234801561001057600080fd5b50604051610da5380380610da5833981810160405260a081101561003357600080fd5b81019080805190602001909291908051906020019092919080519060200190929190805190602001909291908051906020019092919050505084600460006101000a81548173ffffffffffffffffffffffffffffffffffffffff021916908373ffffffffffffffffffffffffffffffffffffffff16021790555083600560006101000a81548173ffffffffffffffffffffffffffffffffffffffff021916908373ffffffffffffffffffffffffffffffffffffffff16021790555033600360006101000a81548173ffffffffffffffffffffffffffffffffffffffff021916908373ffffffffffffffffffffffffffffffffffffffff16021790555082600660006101000a81548173ffffffffffffffffffffffffffffffffffffffff021916908373ffffffffffffffffffffffffffffffffffffffff16021790555081600760006101000a81548173ffffffffffffffffffffffffffffffffffffffff021916908373ffffffffffffffffffffffffffffffffffffffff1602179055508060008190555060006008819055505050505050610bd1806101d46000396000f3fe608060405234801561001057600080fd5b506004361061009e5760003560e01c8063845ddcb211610066578063845ddcb214610195578063e2a0e125146101ed578063f793914c1461020b578063fa27d48414610255578063ff69909e1461025f5761009e565b806325223bd4146100a35780635ee6509a146100ed57806365332136146100f75780636618417e146101415780637ea7118c1461014b575b600080fd5b6100ab6102a9565b604051808273ffffffffffffffffffffffffffffffffffffffff1673ffffffffffffffffffffffffffffffffffffffff16815260200191505060405180910390f35b6100f56102cf565b005b6100ff61042b565b604051808273ffffffffffffffffffffffffffffffffffffffff1673ffffffffffffffffffffffffffffffffffffffff16815260200191505060405180910390f35b610149610451565b005b610153610712565b604051808273ffffffffffffffffffffffffffffffffffffffff1673ffffffffffffffffffffffffffffffffffffffff16815260200191505060405180910390f35b6101c1600480360360208110156101ab57600080fd5b8101908080359060200190929190505050610738565b604051808415151515815260200183151515158152602001828152602001935050505060405180910390f35b6101f5610789565b6040518082815260200191505060405180910390f35b61021361078f565b604051808273ffffffffffffffffffffffffffffffffffffffff1673ffffffffffffffffffffffffffffffffffffffff16815260200191505060405180910390f35b61025d6107b5565b005b610267610b51565b604051808273ffffffffffffffffffffffffffffffffffffffff1673ffffffffffffffffffffffffffffffffffffffff16815260200191505060405180910390f35b600560009054906101000a900473ffffffffffffffffffffffffffffffffffffffff1681565b600360009054906101000a900473ffffffffffffffffffffffffffffffffffffffff1673ffffffffffffffffffffffffffffffffffffffff163373ffffffffffffffffffffffffffffffffffffffff161461032957600080fd5b600060085414610375576001151560096001600854038154811061034957fe5b906000526020600020906002020160000160019054906101000a900460ff1615151461037457600080fd5b5b600160085401600881905550610389610b77565b6040518060600160405280600115158152602001600015158152602001600081525090506009819080600181540180825580915050906001820390600052602060002090600202016000909192909190915060008201518160000160006101000a81548160ff02191690831515021790555060208201518160000160016101000a81548160ff0219169083151502179055506040820151816001015550505050565b600660009054906101000a900473ffffffffffffffffffffffffffffffffffffffff1681565b600560009054906101000a900473ffffffffffffffffffffffffffffffffffffffff1673ffffffffffffffffffffffffffffffffffffffff163373ffffffffffffffffffffffffffffffffffffffff1614806104fa5750600460009054906101000a900473ffffffffffffffffffffffffffffffffffffffff1673ffffffffffffffffffffffffffffffffffffffff163373ffffffffffffffffffffffffffffffffffffffff16145b806105525750600360009054906101000a900473ffffffffffffffffffffffffffffffffffffffff1673ffffffffffffffffffffffffffffffffffffffff163373ffffffffffffffffffffffffffffffffffffffff16145b806105aa5750600660009054906101000a900473ffffffffffffffffffffffffffffffffffffffff1673ffffffffffffffffffffffffffffffffffffffff163373ffffffffffffffffffffffffffffffffffffffff16145b806106025750600760009054906101000a900473ffffffffffffffffffffffffffffffffffffffff1673ffffffffffffffffffffffffffffffffffffffff163373ffffffffffffffffffffffffffffffffffffffff16145b61060b57600080fd5b600b6000600854815260200190815260200160002060003373ffffffffffffffffffffffffffffffffffffffff1673ffffffffffffffffffffffffffffffffffffffff16815260200190815260200160002060009054906101000a900460ff161561067557600080fd5b6001600b6000600854815260200190815260200160002060003373ffffffffffffffffffffffffffffffffffffffff1673ffffffffffffffffffffffffffffffffffffffff16815260200190815260200160002060006101000a81548160ff0219169083151502179055506009600854815481106106ef57fe5b906000526020600020906002020160010160008154809291906001019190505550565b600360009054906101000a900473ffffffffffffffffffffffffffffffffffffffff1681565b6009818154811061074557fe5b90600052602060002090600202016000915090508060000160009054906101000a900460ff16908060000160019054906101000a900460ff16908060010154905083565b60085481565b600760009054906101000a900473ffffffffffffffffffffffffffffffffffffffff1681565b600360009054906101000a900473ffffffffffffffffffffffffffffffffffffffff1673ffffffffffffffffffffffffffffffffffffffff163373ffffffffffffffffffffffffffffffffffffffff161461080f57600080fd5b600560096008548154811061082057fe5b9060005260206000209060020201600101541461083c57600080fd5b60011515600b600060085481526020019081526020016000206000600560009054906101000a900473ffffffffffffffffffffffffffffffffffffffff1673ffffffffffffffffffffffffffffffffffffffff1673ffffffffffffffffffffffffffffffffffffffff16815260200190815260200160002060009054906101000a900460ff161515146108ce57600080fd5b60011515600b600060085481526020019081526020016000206000600460009054906101000a900473ffffffffffffffffffffffffffffffffffffffff1673ffffffffffffffffffffffffffffffffffffffff1673ffffffffffffffffffffffffffffffffffffffff16815260200190815260200160002060009054906101000a900460ff1615151461096057600080fd5b60011515600b600060085481526020019081526020016000206000600360009054906101000a900473ffffffffffffffffffffffffffffffffffffffff1673ffffffffffffffffffffffffffffffffffffffff1673ffffffffffffffffffffffffffffffffffffffff16815260200190815260200160002060009054906101000a900460ff161515146109f257600080fd5b60011515600b600060085481526020019081526020016000206000600760009054906101000a900473ffffffffffffffffffffffffffffffffffffffff1673ffffffffffffffffffffffffffffffffffffffff1673ffffffffffffffffffffffffffffffffffffffff16815260200190815260200160002060009054906101000a900460ff16151514610a8457600080fd5b60011515600b600060085481526020019081526020016000206000600660009054906101000a900473ffffffffffffffffffffffffffffffffffffffff1673ffffffffffffffffffffffffffffffffffffffff1673ffffffffffffffffffffffffffffffffffffffff16815260200190815260200160002060009054906101000a900460ff16151514610b1657600080fd5b6001600960085481548110610b2757fe5b906000526020600020906002020160000160016101000a81548160ff021916908315150217905550565b600460009054906101000a900473ffffffffffffffffffffffffffffffffffffffff1681565b604051806060016040528060001515815260200160001515815260200160008152509056fea265627a7a72315820c4523a45cdbaa57c6809e7c1053ff464b7d4ee9ec4590bdf1c166bc422a1335864736f6c63430005100032",
  "source": "// SPDX-License-Identifier: MIT\npragma solidity >=0.4.25 <0.7.0;\n\ncontract Transplant {\n\n\t\tstruct doc {\n\t\t    address uploader ;\n\t\t    string hexCode ;\n\t\t}\n\t\t\n\t\tstruct Stage {\n\t\t    bool started ;\n\t\t    bool completed ;\n\t\t    uint voteCount ;\n\t\t}\n\n\n    \tuint organ ;\n\t\tuint cost ;\n\t\tstring status ;\n\n\t\taddress public doctor ;\n\t\taddress public recepient ;\n\t\taddress public donor ;\n\t\taddress public approval_authority1;\n\t\taddress public approval_authority2;\n\n\t\tuint256 public stageNo ;\n\t\tStage[] public stages ;\n\t\t\n\t\t//mapping user address => stage no => bool\n\t\tmapping (address => bool) entity ;\n\t\tmapping ( uint256 => mapping ( address => bool )) approval ;\n\t\tmapping (uint256 => doc[]) docs ;\n\n\t\tmodifier onlyDoctor() {\n\t\t    require(msg.sender == doctor);\n\t\t    _;\n\t\t}\n\t\tmodifier belongs () {\n\t\t    require (msg.sender == donor || msg.sender == recepient || msg.sender == doctor || msg.sender == approval_authority1 || msg.sender == approval_authority2 );\n\t\t    _;\n\t\t}\n\t\t\n\n\t\tconstructor ( address _receient , address _donor , address _approval_authority1 , address _approval_authority2 , uint _organ ) public {\n\t\t    recepient =_receient;\n\t\t    donor =_donor;\n\t\t    doctor= msg.sender ;\n\t\t    approval_authority1 = _approval_authority1;\n\t\t    approval_authority2 = _approval_authority2;\n\t\t    organ =_organ;\n\t\t    stageNo=0;\n\t\t    \n\t\t}\n\t\t\n\t\tfunction startNextStage () public onlyDoctor {\n\t\t    if(stageNo != 0)\n\t\t    {\n\t\t        require(stages[stageNo -1].completed == true);\n\t\t    }\n\t\t    stageNo = stageNo+1;\n\t\t    Stage memory newStage = Stage({\n\t\t        completed:false,\n\t\t        voteCount:0,\n\t\t        started:true \n\t\t    });\n\t\t    stages.push(newStage);\n\t\t}\n\t\tfunction currentStageApproval () public belongs  { //upload ipfs docs here pending functionality  \n\t\t\trequire(!approval[stageNo][msg.sender]);\n\t\t\tapproval[stageNo][msg.sender]= true ;\n\t\t\tstages[stageNo].voteCount ++ ;\n\t\t}\n\t\tfunction completeStage () public onlyDoctor {\n\t\t\trequire(stages[stageNo].voteCount == 5);\n\t\t\trequire(approval[stageNo][donor] == true );\n\t\t\trequire(approval[stageNo][recepient] == true );\n\t\t\trequire(approval[stageNo][doctor] == true );\n\t\t\trequire(approval[stageNo][approval_authority2] == true );\n\t\t\trequire(approval[stageNo][approval_authority1] == true );\n\t\t\tstages[stageNo].completed =true ;\n\t\t}\n\t\t\n}",
  "sourcePath": "/home/specter25/cs2019-2023/blockchain/organ-donation-blockchain/contracts/Transplant.sol",
  "compiler": {
    "name": "solc",
    "version": "0.5.16+commit.9c3226ce.Emscripten.clang"
  },
  "schemaVersion": "3.2.3",
  "updatedAt": "2020-12-19T10:12:20.780Z",
  "devdoc": {
    "methods": {}
  },
  "userdoc": {
    "methods": {}
  }
}